{
	"data": {
		"bytecode": {
			"linkReferences": {},
			"object": "60606040526000601755610011610166565b610019610166565b610021610166565b33601660006101000a81548173ffffffffffffffffffffffffffffffffffffffff021916908373ffffffffffffffffffffffffffffffffffffffff16021790555060408051908101604052806000815260200184815250600d600060038110151561008857fe5b600202016000820151816000015560208201518160010190805190602001906100b292919061017a565b5090505060408051908101604052806001815260200183815250600d60016003811015156100dc57fe5b6002020160008201518160000155602082015181600101908051906020019061010692919061017a565b5090505060408051908101604052806002815260200182815250600d600260038110151561013057fe5b6002020160008201518160000155602082015181600101908051906020019061015a92919061017a565b509050505050506101ec565b602060405190810160405280600081525090565b8280548282559060005260206000209081019282156101b6579160200282015b828111156101b557825182559160200191906001019061019a565b5b5090506101c391906101c7565b5090565b6101e991905b808211156101e55760008160009055506001016101cd565b5090565b90565b6108c1806101fb6000396000f30060606040523615610081576000357c0100000000000000000000000000000000000000000000000000000000900463ffffffff1680631aa3a0081461008657806338af3eed14610090578063598647f8146100e55780636098170514610106578063952587d614610177578063a2fb11751461018c578063bfb231d2146101ef575b600080fd5b61008e610226565b005b341561009b57600080fd5b6100a361039f565b604051808273ffffffffffffffffffffffffffffffffffffffff1673ffffffffffffffffffffffffffffffffffffffff16815260200191505060405180910390f35b61010460048080359060200190919080359060200190919050506103c5565b005b341561011157600080fd5b6101276004808035906020019091905050610600565b604051808481526020018381526020018273ffffffffffffffffffffffffffffffffffffffff1673ffffffffffffffffffffffffffffffffffffffff168152602001935050505060405180910390f35b341561018257600080fd5b61018a610677565b005b341561019757600080fd5b6101ad60048080359060200190919050506107ec565b604051808273ffffffffffffffffffffffffffffffffffffffff1673ffffffffffffffffffffffffffffffffffffffff16815260200191505060405180910390f35b34156101fa57600080fd5b6102106004808035906020019091905050610821565b6040518082815260200191505060405180910390f35b601754600160175460048110151561023a57fe5b600302016001018190555033600160175460048110151561025757fe5b6003020160020160006101000a81548173ffffffffffffffffffffffffffffffffffffffff021916908373ffffffffffffffffffffffffffffffffffffffff160217905550600560016017546004811015156102af57fe5b600302016000018190555060016017546004811015156102cb57fe5b600302016000803373ffffffffffffffffffffffffffffffffffffffff1673ffffffffffffffffffffffffffffffffffffffff16815260200190815260200160002060008201548160000155600182015481600101556002820160009054906101000a900473ffffffffffffffffffffffffffffffffffffffff168160020160006101000a81548173ffffffffffffffffffffffffffffffffffffffff021916908373ffffffffffffffffffffffffffffffffffffffff160217905550905050601760008154809291906001019190505550565b601660009054906101000a900473ffffffffffffffffffffffffffffffffffffffff1681565b6000806000836000803373ffffffffffffffffffffffffffffffffffffffff1673ffffffffffffffffffffffffffffffffffffffff16815260200190815260200160002060000154108061045b575060008060003373ffffffffffffffffffffffffffffffffffffffff1673ffffffffffffffffffffffffffffffffffffffff1681526020019081526020016000206000015411155b1561046557600080fd5b600160030385111561047657600080fd5b836000803373ffffffffffffffffffffffffffffffffffffffff1673ffffffffffffffffffffffffffffffffffffffff16815260200190815260200160002060000154039250826000803373ffffffffffffffffffffffffffffffffffffffff1673ffffffffffffffffffffffffffffffffffffffff168152602001908152602001600020600001819055508260016000803373ffffffffffffffffffffffffffffffffffffffff1673ffffffffffffffffffffffffffffffffffffffff1681526020019081526020016000206001015460048110151561055357fe5b6003020160000181905550600d8560038110151561056d57fe5b600202019150600090505b838110156105f9578160010180548060010182816105969190610844565b916000526020600020900160008060003373ffffffffffffffffffffffffffffffffffffffff1673ffffffffffffffffffffffffffffffffffffffff16815260200190815260200160002060010154909190915055508080600101915050610578565b5050505050565b600080600060018460048110151561061457fe5b600302016000015460018560048110151561062b57fe5b600302016001015460018660048110151561064257fe5b6003020160020160009054906101000a900473ffffffffffffffffffffffffffffffffffffffff169250925092509193909250565b600080600080601660009054906101000a900473ffffffffffffffffffffffffffffffffffffffff1673ffffffffffffffffffffffffffffffffffffffff163373ffffffffffffffffffffffffffffffffffffffff161415156106d957600080fd5b600093505b60038410156107e657600d846003811015156106f657fe5b600202019250600083600101805490501415156107d957826001018054905083600101805490504381151561072757fe5b0481151561073157fe5b069150826001018281548110151561074557fe5b906000526020600020900154905060018160048110151561076257fe5b6003020160020160009054906101000a900473ffffffffffffffffffffffffffffffffffffffff1660138560038110151561079957fe5b0160006101000a81548173ffffffffffffffffffffffffffffffffffffffff021916908373ffffffffffffffffffffffffffffffffffffffff1602179055505b83806001019450506106de565b50505050565b6013816003811015156107fb57fe5b016000915054906101000a900473ffffffffffffffffffffffffffffffffffffffff1681565b600d8160038110151561083057fe5b600202016000915090508060000154905081565b81548183558181151161086b5781836000526020600020918201910161086a9190610870565b5b505050565b61089291905b8082111561088e576000816000905550600101610876565b5090565b905600a165627a7a72305820f616aca315358322b052082e0c08822b47d27e551de9db57180161c8dba5fa490029",
			"opcodes": "PUSH1 0x60 PUSH1 0x40 MSTORE PUSH1 0x0 PUSH1 0x17 SSTORE PUSH2 0x11 PUSH2 0x166 JUMP JUMPDEST PUSH2 0x19 PUSH2 0x166 JUMP JUMPDEST PUSH2 0x21 PUSH2 0x166 JUMP JUMPDEST CALLER PUSH1 0x16 PUSH1 0x0 PUSH2 0x100 EXP DUP2 SLOAD DUP2 PUSH20 0xFFFFFFFFFFFFFFFFFFFFFFFFFFFFFFFFFFFFFFFF MUL NOT AND SWAP1 DUP4 PUSH20 0xFFFFFFFFFFFFFFFFFFFFFFFFFFFFFFFFFFFFFFFF AND MUL OR SWAP1 SSTORE POP PUSH1 0x40 DUP1 MLOAD SWAP1 DUP2 ADD PUSH1 0x40 MSTORE DUP1 PUSH1 0x0 DUP2 MSTORE PUSH1 0x20 ADD DUP5 DUP2 MSTORE POP PUSH1 0xD PUSH1 0x0 PUSH1 0x3 DUP2 LT ISZERO ISZERO PUSH2 0x88 JUMPI INVALID JUMPDEST PUSH1 0x2 MUL ADD PUSH1 0x0 DUP3 ADD MLOAD DUP2 PUSH1 0x0 ADD SSTORE PUSH1 0x20 DUP3 ADD MLOAD DUP2 PUSH1 0x1 ADD SWAP1 DUP1 MLOAD SWAP1 PUSH1 0x20 ADD SWAP1 PUSH2 0xB2 SWAP3 SWAP2 SWAP1 PUSH2 0x17A JUMP JUMPDEST POP SWAP1 POP POP PUSH1 0x40 DUP1 MLOAD SWAP1 DUP2 ADD PUSH1 0x40 MSTORE DUP1 PUSH1 0x1 DUP2 MSTORE PUSH1 0x20 ADD DUP4 DUP2 MSTORE POP PUSH1 0xD PUSH1 0x1 PUSH1 0x3 DUP2 LT ISZERO ISZERO PUSH2 0xDC JUMPI INVALID JUMPDEST PUSH1 0x2 MUL ADD PUSH1 0x0 DUP3 ADD MLOAD DUP2 PUSH1 0x0 ADD SSTORE PUSH1 0x20 DUP3 ADD MLOAD DUP2 PUSH1 0x1 ADD SWAP1 DUP1 MLOAD SWAP1 PUSH1 0x20 ADD SWAP1 PUSH2 0x106 SWAP3 SWAP2 SWAP1 PUSH2 0x17A JUMP JUMPDEST POP SWAP1 POP POP PUSH1 0x40 DUP1 MLOAD SWAP1 DUP2 ADD PUSH1 0x40 MSTORE DUP1 PUSH1 0x2 DUP2 MSTORE PUSH1 0x20 ADD DUP3 DUP2 MSTORE POP PUSH1 0xD PUSH1 0x2 PUSH1 0x3 DUP2 LT ISZERO ISZERO PUSH2 0x130 JUMPI INVALID JUMPDEST PUSH1 0x2 MUL ADD PUSH1 0x0 DUP3 ADD MLOAD DUP2 PUSH1 0x0 ADD SSTORE PUSH1 0x20 DUP3 ADD MLOAD DUP2 PUSH1 0x1 ADD SWAP1 DUP1 MLOAD SWAP1 PUSH1 0x20 ADD SWAP1 PUSH2 0x15A SWAP3 SWAP2 SWAP1 PUSH2 0x17A JUMP JUMPDEST POP SWAP1 POP POP POP POP POP PUSH2 0x1EC JUMP JUMPDEST PUSH1 0x20 PUSH1 0x40 MLOAD SWAP1 DUP2 ADD PUSH1 0x40 MSTORE DUP1 PUSH1 0x0 DUP2 MSTORE POP SWAP1 JUMP JUMPDEST DUP3 DUP1 SLOAD DUP3 DUP3 SSTORE SWAP1 PUSH1 0x0 MSTORE PUSH1 0x20 PUSH1 0x0 KECCAK256 SWAP1 DUP2 ADD SWAP3 DUP3 ISZERO PUSH2 0x1B6 JUMPI SWAP2 PUSH1 0x20 MUL DUP3 ADD JUMPDEST DUP3 DUP2 GT ISZERO PUSH2 0x1B5 JUMPI DUP3 MLOAD DUP3 SSTORE SWAP2 PUSH1 0x20 ADD SWAP2 SWAP1 PUSH1 0x1 ADD SWAP1 PUSH2 0x19A JUMP JUMPDEST JUMPDEST POP SWAP1 POP PUSH2 0x1C3 SWAP2 SWAP1 PUSH2 0x1C7 JUMP JUMPDEST POP SWAP1 JUMP JUMPDEST PUSH2 0x1E9 SWAP2 SWAP1 JUMPDEST DUP1 DUP3 GT ISZERO PUSH2 0x1E5 JUMPI PUSH1 0x0 DUP2 PUSH1 0x0 SWAP1 SSTORE POP PUSH1 0x1 ADD PUSH2 0x1CD JUMP JUMPDEST POP SWAP1 JUMP JUMPDEST SWAP1 JUMP JUMPDEST PUSH2 0x8C1 DUP1 PUSH2 0x1FB PUSH1 0x0 CODECOPY PUSH1 0x0 RETURN STOP PUSH1 0x60 PUSH1 0x40 MSTORE CALLDATASIZE ISZERO PUSH2 0x81 JUMPI PUSH1 0x0 CALLDATALOAD PUSH29 0x100000000000000000000000000000000000000000000000000000000 SWAP1 DIV PUSH4 0xFFFFFFFF AND DUP1 PUSH4 0x1AA3A008 EQ PUSH2 0x86 JUMPI DUP1 PUSH4 0x38AF3EED EQ PUSH2 0x90 JUMPI DUP1 PUSH4 0x598647F8 EQ PUSH2 0xE5 JUMPI DUP1 PUSH4 0x60981705 EQ PUSH2 0x106 JUMPI DUP1 PUSH4 0x952587D6 EQ PUSH2 0x177 JUMPI DUP1 PUSH4 0xA2FB1175 EQ PUSH2 0x18C JUMPI DUP1 PUSH4 0xBFB231D2 EQ PUSH2 0x1EF JUMPI JUMPDEST PUSH1 0x0 DUP1 REVERT JUMPDEST PUSH2 0x8E PUSH2 0x226 JUMP JUMPDEST STOP JUMPDEST CALLVALUE ISZERO PUSH2 0x9B JUMPI PUSH1 0x0 DUP1 REVERT JUMPDEST PUSH2 0xA3 PUSH2 0x39F JUMP JUMPDEST PUSH1 0x40 MLOAD DUP1 DUP3 PUSH20 0xFFFFFFFFFFFFFFFFFFFFFFFFFFFFFFFFFFFFFFFF AND PUSH20 0xFFFFFFFFFFFFFFFFFFFFFFFFFFFFFFFFFFFFFFFF AND DUP2 MSTORE PUSH1 0x20 ADD SWAP2 POP POP PUSH1 0x40 MLOAD DUP1 SWAP2 SUB SWAP1 RETURN JUMPDEST PUSH2 0x104 PUSH1 0x4 DUP1 DUP1 CALLDATALOAD SWAP1 PUSH1 0x20 ADD SWAP1 SWAP2 SWAP1 DUP1 CALLDATALOAD SWAP1 PUSH1 0x20 ADD SWAP1 SWAP2 SWAP1 POP POP PUSH2 0x3C5 JUMP JUMPDEST STOP JUMPDEST CALLVALUE ISZERO PUSH2 0x111 JUMPI PUSH1 0x0 DUP1 REVERT JUMPDEST PUSH2 0x127 PUSH1 0x4 DUP1 DUP1 CALLDATALOAD SWAP1 PUSH1 0x20 ADD SWAP1 SWAP2 SWAP1 POP POP PUSH2 0x600 JUMP JUMPDEST PUSH1 0x40 MLOAD DUP1 DUP5 DUP2 MSTORE PUSH1 0x20 ADD DUP4 DUP2 MSTORE PUSH1 0x20 ADD DUP3 PUSH20 0xFFFFFFFFFFFFFFFFFFFFFFFFFFFFFFFFFFFFFFFF AND PUSH20 0xFFFFFFFFFFFFFFFFFFFFFFFFFFFFFFFFFFFFFFFF AND DUP2 MSTORE PUSH1 0x20 ADD SWAP4 POP POP POP POP PUSH1 0x40 MLOAD DUP1 SWAP2 SUB SWAP1 RETURN JUMPDEST CALLVALUE ISZERO PUSH2 0x182 JUMPI PUSH1 0x0 DUP1 REVERT JUMPDEST PUSH2 0x18A PUSH2 0x677 JUMP JUMPDEST STOP JUMPDEST CALLVALUE ISZERO PUSH2 0x197 JUMPI PUSH1 0x0 DUP1 REVERT JUMPDEST PUSH2 0x1AD PUSH1 0x4 DUP1 DUP1 CALLDATALOAD SWAP1 PUSH1 0x20 ADD SWAP1 SWAP2 SWAP1 POP POP PUSH2 0x7EC JUMP JUMPDEST PUSH1 0x40 MLOAD DUP1 DUP3 PUSH20 0xFFFFFFFFFFFFFFFFFFFFFFFFFFFFFFFFFFFFFFFF AND PUSH20 0xFFFFFFFFFFFFFFFFFFFFFFFFFFFFFFFFFFFFFFFF AND DUP2 MSTORE PUSH1 0x20 ADD SWAP2 POP POP PUSH1 0x40 MLOAD DUP1 SWAP2 SUB SWAP1 RETURN JUMPDEST CALLVALUE ISZERO PUSH2 0x1FA JUMPI PUSH1 0x0 DUP1 REVERT JUMPDEST PUSH2 0x210 PUSH1 0x4 DUP1 DUP1 CALLDATALOAD SWAP1 PUSH1 0x20 ADD SWAP1 SWAP2 SWAP1 POP POP PUSH2 0x821 JUMP JUMPDEST PUSH1 0x40 MLOAD DUP1 DUP3 DUP2 MSTORE PUSH1 0x20 ADD SWAP2 POP POP PUSH1 0x40 MLOAD DUP1 SWAP2 SUB SWAP1 RETURN JUMPDEST PUSH1 0x17 SLOAD PUSH1 0x1 PUSH1 0x17 SLOAD PUSH1 0x4 DUP2 LT ISZERO ISZERO PUSH2 0x23A JUMPI INVALID JUMPDEST PUSH1 0x3 MUL ADD PUSH1 0x1 ADD DUP2 SWAP1 SSTORE POP CALLER PUSH1 0x1 PUSH1 0x17 SLOAD PUSH1 0x4 DUP2 LT ISZERO ISZERO PUSH2 0x257 JUMPI INVALID JUMPDEST PUSH1 0x3 MUL ADD PUSH1 0x2 ADD PUSH1 0x0 PUSH2 0x100 EXP DUP2 SLOAD DUP2 PUSH20 0xFFFFFFFFFFFFFFFFFFFFFFFFFFFFFFFFFFFFFFFF MUL NOT AND SWAP1 DUP4 PUSH20 0xFFFFFFFFFFFFFFFFFFFFFFFFFFFFFFFFFFFFFFFF AND MUL OR SWAP1 SSTORE POP PUSH1 0x5 PUSH1 0x1 PUSH1 0x17 SLOAD PUSH1 0x4 DUP2 LT ISZERO ISZERO PUSH2 0x2AF JUMPI INVALID JUMPDEST PUSH1 0x3 MUL ADD PUSH1 0x0 ADD DUP2 SWAP1 SSTORE POP PUSH1 0x1 PUSH1 0x17 SLOAD PUSH1 0x4 DUP2 LT ISZERO ISZERO PUSH2 0x2CB JUMPI INVALID JUMPDEST PUSH1 0x3 MUL ADD PUSH1 0x0 DUP1 CALLER PUSH20 0xFFFFFFFFFFFFFFFFFFFFFFFFFFFFFFFFFFFFFFFF AND PUSH20 0xFFFFFFFFFFFFFFFFFFFFFFFFFFFFFFFFFFFFFFFF AND DUP2 MSTORE PUSH1 0x20 ADD SWAP1 DUP2 MSTORE PUSH1 0x20 ADD PUSH1 0x0 KECCAK256 PUSH1 0x0 DUP3 ADD SLOAD DUP2 PUSH1 0x0 ADD SSTORE PUSH1 0x1 DUP3 ADD SLOAD DUP2 PUSH1 0x1 ADD SSTORE PUSH1 0x2 DUP3 ADD PUSH1 0x0 SWAP1 SLOAD SWAP1 PUSH2 0x100 EXP SWAP1 DIV PUSH20 0xFFFFFFFFFFFFFFFFFFFFFFFFFFFFFFFFFFFFFFFF AND DUP2 PUSH1 0x2 ADD PUSH1 0x0 PUSH2 0x100 EXP DUP2 SLOAD DUP2 PUSH20 0xFFFFFFFFFFFFFFFFFFFFFFFFFFFFFFFFFFFFFFFF MUL NOT AND SWAP1 DUP4 PUSH20 0xFFFFFFFFFFFFFFFFFFFFFFFFFFFFFFFFFFFFFFFF AND MUL OR SWAP1 SSTORE POP SWAP1 POP POP PUSH1 0x17 PUSH1 0x0 DUP2 SLOAD DUP1 SWAP3 SWAP2 SWAP1 PUSH1 0x1 ADD SWAP2 SWAP1 POP SSTORE POP JUMP JUMPDEST PUSH1 0x16 PUSH1 0x0 SWAP1 SLOAD SWAP1 PUSH2 0x100 EXP SWAP1 DIV PUSH20 0xFFFFFFFFFFFFFFFFFFFFFFFFFFFFFFFFFFFFFFFF AND DUP2 JUMP JUMPDEST PUSH1 0x0 DUP1 PUSH1 0x0 DUP4 PUSH1 0x0 DUP1 CALLER PUSH20 0xFFFFFFFFFFFFFFFFFFFFFFFFFFFFFFFFFFFFFFFF AND PUSH20 0xFFFFFFFFFFFFFFFFFFFFFFFFFFFFFFFFFFFFFFFF AND DUP2 MSTORE PUSH1 0x20 ADD SWAP1 DUP2 MSTORE PUSH1 0x20 ADD PUSH1 0x0 KECCAK256 PUSH1 0x0 ADD SLOAD LT DUP1 PUSH2 0x45B JUMPI POP PUSH1 0x0 DUP1 PUSH1 0x0 CALLER PUSH20 0xFFFFFFFFFFFFFFFFFFFFFFFFFFFFFFFFFFFFFFFF AND PUSH20 0xFFFFFFFFFFFFFFFFFFFFFFFFFFFFFFFFFFFFFFFF AND DUP2 MSTORE PUSH1 0x20 ADD SWAP1 DUP2 MSTORE PUSH1 0x20 ADD PUSH1 0x0 KECCAK256 PUSH1 0x0 ADD SLOAD GT ISZERO JUMPDEST ISZERO PUSH2 0x465 JUMPI PUSH1 0x0 DUP1 REVERT JUMPDEST PUSH1 0x1 PUSH1 0x3 SUB DUP6 GT ISZERO PUSH2 0x476 JUMPI PUSH1 0x0 DUP1 REVERT JUMPDEST DUP4 PUSH1 0x0 DUP1 CALLER PUSH20 0xFFFFFFFFFFFFFFFFFFFFFFFFFFFFFFFFFFFFFFFF AND PUSH20 0xFFFFFFFFFFFFFFFFFFFFFFFFFFFFFFFFFFFFFFFF AND DUP2 MSTORE PUSH1 0x20 ADD SWAP1 DUP2 MSTORE PUSH1 0x20 ADD PUSH1 0x0 KECCAK256 PUSH1 0x0 ADD SLOAD SUB SWAP3 POP DUP3 PUSH1 0x0 DUP1 CALLER PUSH20 0xFFFFFFFFFFFFFFFFFFFFFFFFFFFFFFFFFFFFFFFF AND PUSH20 0xFFFFFFFFFFFFFFFFFFFFFFFFFFFFFFFFFFFFFFFF AND DUP2 MSTORE PUSH1 0x20 ADD SWAP1 DUP2 MSTORE PUSH1 0x20 ADD PUSH1 0x0 KECCAK256 PUSH1 0x0 ADD DUP2 SWAP1 SSTORE POP DUP3 PUSH1 0x1 PUSH1 0x0 DUP1 CALLER PUSH20 0xFFFFFFFFFFFFFFFFFFFFFFFFFFFFFFFFFFFFFFFF AND PUSH20 0xFFFFFFFFFFFFFFFFFFFFFFFFFFFFFFFFFFFFFFFF AND DUP2 MSTORE PUSH1 0x20 ADD SWAP1 DUP2 MSTORE PUSH1 0x20 ADD PUSH1 0x0 KECCAK256 PUSH1 0x1 ADD SLOAD PUSH1 0x4 DUP2 LT ISZERO ISZERO PUSH2 0x553 JUMPI INVALID JUMPDEST PUSH1 0x3 MUL ADD PUSH1 0x0 ADD DUP2 SWAP1 SSTORE POP PUSH1 0xD DUP6 PUSH1 0x3 DUP2 LT ISZERO ISZERO PUSH2 0x56D JUMPI INVALID JUMPDEST PUSH1 0x2 MUL ADD SWAP2 POP PUSH1 0x0 SWAP1 POP JUMPDEST DUP4 DUP2 LT ISZERO PUSH2 0x5F9 JUMPI DUP2 PUSH1 0x1 ADD DUP1 SLOAD DUP1 PUSH1 0x1 ADD DUP3 DUP2 PUSH2 0x596 SWAP2 SWAP1 PUSH2 0x844 JUMP JUMPDEST SWAP2 PUSH1 0x0 MSTORE PUSH1 0x20 PUSH1 0x0 KECCAK256 SWAP1 ADD PUSH1 0x0 DUP1 PUSH1 0x0 CALLER PUSH20 0xFFFFFFFFFFFFFFFFFFFFFFFFFFFFFFFFFFFFFFFF AND PUSH20 0xFFFFFFFFFFFFFFFFFFFFFFFFFFFFFFFFFFFFFFFF AND DUP2 MSTORE PUSH1 0x20 ADD SWAP1 DUP2 MSTORE PUSH1 0x20 ADD PUSH1 0x0 KECCAK256 PUSH1 0x1 ADD SLOAD SWAP1 SWAP2 SWAP1 SWAP2 POP SSTORE POP DUP1 DUP1 PUSH1 0x1 ADD SWAP2 POP POP PUSH2 0x578 JUMP JUMPDEST POP POP POP POP POP JUMP JUMPDEST PUSH1 0x0 DUP1 PUSH1 0x0 PUSH1 0x1 DUP5 PUSH1 0x4 DUP2 LT ISZERO ISZERO PUSH2 0x614 JUMPI INVALID JUMPDEST PUSH1 0x3 MUL ADD PUSH1 0x0 ADD SLOAD PUSH1 0x1 DUP6 PUSH1 0x4 DUP2 LT ISZERO ISZERO PUSH2 0x62B JUMPI INVALID JUMPDEST PUSH1 0x3 MUL ADD PUSH1 0x1 ADD SLOAD PUSH1 0x1 DUP7 PUSH1 0x4 DUP2 LT ISZERO ISZERO PUSH2 0x642 JUMPI INVALID JUMPDEST PUSH1 0x3 MUL ADD PUSH1 0x2 ADD PUSH1 0x0 SWAP1 SLOAD SWAP1 PUSH2 0x100 EXP SWAP1 DIV PUSH20 0xFFFFFFFFFFFFFFFFFFFFFFFFFFFFFFFFFFFFFFFF AND SWAP3 POP SWAP3 POP SWAP3 POP SWAP2 SWAP4 SWAP1 SWAP3 POP JUMP JUMPDEST PUSH1 0x0 DUP1 PUSH1 0x0 DUP1 PUSH1 0x16 PUSH1 0x0 SWAP1 SLOAD SWAP1 PUSH2 0x100 EXP SWAP1 DIV PUSH20 0xFFFFFFFFFFFFFFFFFFFFFFFFFFFFFFFFFFFFFFFF AND PUSH20 0xFFFFFFFFFFFFFFFFFFFFFFFFFFFFFFFFFFFFFFFF AND CALLER PUSH20 0xFFFFFFFFFFFFFFFFFFFFFFFFFFFFFFFFFFFFFFFF AND EQ ISZERO ISZERO PUSH2 0x6D9 JUMPI PUSH1 0x0 DUP1 REVERT JUMPDEST PUSH1 0x0 SWAP4 POP JUMPDEST PUSH1 0x3 DUP5 LT ISZERO PUSH2 0x7E6 JUMPI PUSH1 0xD DUP5 PUSH1 0x3 DUP2 LT ISZERO ISZERO PUSH2 0x6F6 JUMPI INVALID JUMPDEST PUSH1 0x2 MUL ADD SWAP3 POP PUSH1 0x0 DUP4 PUSH1 0x1 ADD DUP1 SLOAD SWAP1 POP EQ ISZERO ISZERO PUSH2 0x7D9 JUMPI DUP3 PUSH1 0x1 ADD DUP1 SLOAD SWAP1 POP DUP4 PUSH1 0x1 ADD DUP1 SLOAD SWAP1 POP NUMBER DUP2 ISZERO ISZERO PUSH2 0x727 JUMPI INVALID JUMPDEST DIV DUP2 ISZERO ISZERO PUSH2 0x731 JUMPI INVALID JUMPDEST MOD SWAP2 POP DUP3 PUSH1 0x1 ADD DUP3 DUP2 SLOAD DUP2 LT ISZERO ISZERO PUSH2 0x745 JUMPI INVALID JUMPDEST SWAP1 PUSH1 0x0 MSTORE PUSH1 0x20 PUSH1 0x0 KECCAK256 SWAP1 ADD SLOAD SWAP1 POP PUSH1 0x1 DUP2 PUSH1 0x4 DUP2 LT ISZERO ISZERO PUSH2 0x762 JUMPI INVALID JUMPDEST PUSH1 0x3 MUL ADD PUSH1 0x2 ADD PUSH1 0x0 SWAP1 SLOAD SWAP1 PUSH2 0x100 EXP SWAP1 DIV PUSH20 0xFFFFFFFFFFFFFFFFFFFFFFFFFFFFFFFFFFFFFFFF AND PUSH1 0x13 DUP6 PUSH1 0x3 DUP2 LT ISZERO ISZERO PUSH2 0x799 JUMPI INVALID JUMPDEST ADD PUSH1 0x0 PUSH2 0x100 EXP DUP2 SLOAD DUP2 PUSH20 0xFFFFFFFFFFFFFFFFFFFFFFFFFFFFFFFFFFFFFFFF MUL NOT AND SWAP1 DUP4 PUSH20 0xFFFFFFFFFFFFFFFFFFFFFFFFFFFFFFFFFFFFFFFF AND MUL OR SWAP1 SSTORE POP JUMPDEST DUP4 DUP1 PUSH1 0x1 ADD SWAP5 POP POP PUSH2 0x6DE JUMP JUMPDEST POP POP POP POP JUMP JUMPDEST PUSH1 0x13 DUP2 PUSH1 0x3 DUP2 LT ISZERO ISZERO PUSH2 0x7FB JUMPI INVALID JUMPDEST ADD PUSH1 0x0 SWAP2 POP SLOAD SWAP1 PUSH2 0x100 EXP SWAP1 DIV PUSH20 0xFFFFFFFFFFFFFFFFFFFFFFFFFFFFFFFFFFFFFFFF AND DUP2 JUMP JUMPDEST PUSH1 0xD DUP2 PUSH1 0x3 DUP2 LT ISZERO ISZERO PUSH2 0x830 JUMPI INVALID JUMPDEST PUSH1 0x2 MUL ADD PUSH1 0x0 SWAP2 POP SWAP1 POP DUP1 PUSH1 0x0 ADD SLOAD SWAP1 POP DUP2 JUMP JUMPDEST DUP2 SLOAD DUP2 DUP4 SSTORE DUP2 DUP2 ISZERO GT PUSH2 0x86B JUMPI DUP2 DUP4 PUSH1 0x0 MSTORE PUSH1 0x20 PUSH1 0x0 KECCAK256 SWAP2 DUP3 ADD SWAP2 ADD PUSH2 0x86A SWAP2 SWAP1 PUSH2 0x870 JUMP JUMPDEST JUMPDEST POP POP POP JUMP JUMPDEST PUSH2 0x892 SWAP2 SWAP1 JUMPDEST DUP1 DUP3 GT ISZERO PUSH2 0x88E JUMPI PUSH1 0x0 DUP2 PUSH1 0x0 SWAP1 SSTORE POP PUSH1 0x1 ADD PUSH2 0x876 JUMP JUMPDEST POP SWAP1 JUMP JUMPDEST SWAP1 JUMP STOP LOG1 PUSH6 0x627A7A723058 KECCAK256 0xf6 AND 0xac LOG3 ISZERO CALLDATALOAD DUP4 0x22 0xb0 MSTORE ADDMOD 0x2e 0xc ADDMOD DUP3 0x2b 0x47 0xd2 PUSH31 0x551DE9DB57180161C8DBA5FA49002900000000000000000000000000000000 "
		},
		"gasEstimates": {
			"creation": {
				"codeDepositCost": "448200",
				"executionCost": "infinite",
				"totalCost": "infinite"
			},
			"external": {
				"beneficiary()": "453",
				"bid(uint256,uint256)": "infinite",
				"getPersonDetails(uint256)": "1159",
				"items(uint256)": "619",
				"register()": "142880",
				"revealWinners()": "infinite",
				"winners(uint256)": "612"
			}
		},
		"methodIdentifiers": {
			"beneficiary()": "38af3eed",
			"bid(uint256,uint256)": "598647f8",
			"getPersonDetails(uint256)": "60981705",
			"items(uint256)": "bfb231d2",
			"register()": "1aa3a008",
			"revealWinners()": "952587d6",
			"winners(uint256)": "a2fb1175"
		}
	},
	"abi": [
		{
			"constant": false,
			"inputs": [],
			"name": "register",
			"outputs": [],
			"payable": true,
			"stateMutability": "payable",
			"type": "function"
		},
		{
			"constant": true,
			"inputs": [],
			"name": "beneficiary",
			"outputs": [
				{
					"name": "",
					"type": "address"
				}
			],
			"payable": false,
			"stateMutability": "view",
			"type": "function"
		},
		{
			"constant": false,
			"inputs": [
				{
					"name": "_itemId",
					"type": "uint256"
				},
				{
					"name": "_count",
					"type": "uint256"
				}
			],
			"name": "bid",
			"outputs": [],
			"payable": true,
			"stateMutability": "payable",
			"type": "function"
		},
		{
			"constant": true,
			"inputs": [
				{
					"name": "id",
					"type": "uint256"
				}
			],
			"name": "getPersonDetails",
			"outputs": [
				{
					"name": "",
					"type": "uint256"
				},
				{
					"name": "",
					"type": "uint256"
				},
				{
					"name": "",
					"type": "address"
				}
			],
			"payable": false,
			"stateMutability": "view",
			"type": "function"
		},
		{
			"constant": false,
			"inputs": [],
			"name": "revealWinners",
			"outputs": [],
			"payable": false,
			"stateMutability": "nonpayable",
			"type": "function"
		},
		{
			"constant": true,
			"inputs": [
				{
					"name": "",
					"type": "uint256"
				}
			],
			"name": "winners",
			"outputs": [
				{
					"name": "",
					"type": "address"
				}
			],
			"payable": false,
			"stateMutability": "view",
			"type": "function"
		},
		{
			"constant": true,
			"inputs": [
				{
					"name": "",
					"type": "uint256"
				}
			],
			"name": "items",
			"outputs": [
				{
					"name": "itemId",
					"type": "uint256"
				}
			],
			"payable": false,
			"stateMutability": "view",
			"type": "function"
		},
		{
			"inputs": [],
			"payable": true,
			"stateMutability": "payable",
			"type": "constructor"
		}
	]
}